S012000041546D656761424F4F542E73726563AF
S1131C0012C02CC02BC02AC029C028C027C026C09F
S1131C1025C024C023C022C021C020C01FC01EC0B4
S1131C201DC01CC01BC011241FBECFE5D4E0DEBF05
S1131C30CDBF10E0A0E6B0E0E2EDFFE102C0059008
S1131C400D92A236B107D9F721E0A2E6B0E001C0B7
S1131C501D92AA36B207E1F74AD0B9C1D1CF5D9B34
S1131C60FECF8CB90895CF92DF92EF92FF92C12CF0
S1131C70D12C76015F9913C08FEFC81AD80AE80AED
S1131C80F80A81E0C81682E1D8068AE7E806F1047A
S1131C9088F3E0916200F09163000995EBCF8CB179
S1131CA0FF90EF90DF90CF900895CF93DF93D82FDC
S1131CB0C0E0CD1719F0D7DFCF5FFBCFDF91CF9115
S1131CC00895CF93C82FCFDF803239F484E1C7DF82
S1131CD08C2FC5DF80E1CF91C2CFCF910895C3DFB0
S1131CE0803221F484E1BBDF80E1B9CF08950000A4
S1131CF010BC83E389B988E18AB986E880BDBD9ABE
S1131D001092680140E220E030E080916801803167
S1131D10B8F488B3842788BBC9010197F1F780918F
S1131D2068018F5F80936801F0CF813369F080345C
S1131D30F1F0813449F597DF8038F1F482E0C1DFB6
S1131D4092DF803391F724C08EDF8032C9F784E1BB
S1131D5086DF81E484DF86E582DF82E580DF80E25E
S1131D607EDF89E47CDF83E57ADF80E513C17BDFF6
S1131D70863870F078DF0CC0813811F481E0DFCF51
S1131D808238E9F482E1DBCF823421F484E18DDF0F
S1131D90A6DFD6CF853411F485E0F9CF90EB980F08
S1131DA09330B0F3853539F45EDF809364005BDFF4
S1131DB080936500EDCF863521F484E076DF80E002
S1131DC0BECF843609F090C04EDF809367014BDFAD
S1131DD080936601809169018E7F8093690143DF5E
S1131DE0853429F48091690181608093690106E654
S1131DF010E0809166019091670198012656304069
S1131E002817390728F42FDFF80181938F01F1CFC8
S1131E102ADF803209F094CF8091690180FF1FC0CE
S1131E2006E610E0809166019091670198012656BC
S1131E3030402817390708F055C0F80161918F0127
S1131E408091640090916500B5D080916400909178
S1131E50650001969093650080936400E3CFF89445
S1131E60E199FECF1127E0916400F0916500EE0F37
S1131E70FF1FC6E6D0E0809166019091670180FF64
S1131E8001C00196103051F422D003E000935700B2
S1131E90E8951DD001E100935700E8950990199049
S1131EA016D001E000935700E8951395103258F0CE
S1131EB011270DD005E000935700E89508D001E103
S1131EC000935700E8953296029739F0DBCF0091E2
S1131ED0570001700130D9F30895103011F00296C3
S1131EE0E7CF112484E156C0843709F046C0BBDE35
S1131EF080936701B8DE80936601B5DE9091690135
S1131F00853421F49160909369010DC09E7F909374
S1131F1069018091640090916500880F991F9093E6
S1131F206500809364009FDE803209F009CF84E16C
S1131F3096DE00E010E08091660190916701081739
S1131F40190748F52091690180916400909165001A
S1131F5020FF02C027D004C021FD03C0FC018491EE
S1131F607EDE8091640090916500019690936500F7
S1131F70809364000F5F1F4FDECF853779F473DEE3
S1131F80803209F0DDCE84E16ADE8EE168DE83E929
S1131F9066DE87E064DE80E162DED2CE863709F059
S1131FA0CFCE0DCFE199FECF9FBB8EBBE09A992790
S1131FB08DB30895262FE199FECF9FBB8EBB2DBB19
S1131FC00FB6F894E29AE19A0FBE01960895F89438
S1051FD0FFCF3D
S1051FD2800089
S9031C00E0
